:020000040800F2
:100000000000012001900008413F0008433F000824
:10001000453F0008473F0008493F00080000000036
:1000200000000000000000000000000091800008B7
:100030004B3F000800000000318100089581000856
:10004000519000085190000851900008519000080C
:1000500051900008519000085190000851900008FC
:1000600051900008519000085190000851900008EC
:1000700051900008519000085190000851900008DC
:1000800051900008519000085190000800000000B5
:100090000000000000000000000000005190000877
:1000A000519000084D3F0008519000085190000801
:1000B000519000085190000851900008519000089C
:1000C000519000085190000851900008519000088C
:1000D0005190000851900008519000080000000065
:1000E0005190000851900008519000080000000055
:1000F0000000000000000000000000005190000817
:100100000000000051900008519000085190000834
:1001100000000000000000000000000000000000DF
:10012000519000085190000851900008519000082B
:1001300051900008000000000000000000000000D6
:100140000000000000000000000000005D3F00080B
:1001500051900008519000085190000851900008FB
:1001600051900008519000080000000000000000BD
:10017000000000000000000000000000000000007F
:100180000000000051900008000000000000000086
:040190005190000882
:1001A00010B5054C237833B9044B13B10448AFF3B1
:1001B00000800123237010BDD0010020000000004A
:1001C0008C92000808B5034B1BB103490348AFF3F9
:1001D000008008BD00000000D40100208C920008BF
:1001E00053B94AB9002908BF00281CBF4FF0FF319E
:1001F0004FF0FF3000F074B9ADF1080C6DE904CE9A
:1002000000F006F8DDF804E0DDE9022304B07047F1
:100210002DE9F047089D04468E46002B4DD18A42B9
:10022000944669D9B2FA82F252B101FA02F3C2F1EC
:10023000200120FA01F10CFA02FC41EA030E94407D
:100240004FEA1C48210CBEFBF8F61FFA8CF708FB9E
:1002500016E341EA034306FB07F199420AD91CEB76
:10026000030306F1FF3080F01F81994240F21C81A8
:10027000023E63445B1AA4B2B3FBF8F008FB1033F0
:1002800044EA034400FB07F7A7420AD91CEB040425
:1002900000F1FF3380F00A81A74240F207816444F5
:1002A000023840EA0640E41B00261DB1D44000237A
:1002B000C5E900433146BDE8F0878B4209D9002DDE
:1002C00000F0EF800026C5E9000130463146BDE868
:1002D000F087B3FA83F6002E4AD18B4202D38242D2
:1002E00000F2F980841A61EB030301209E46002D81
:1002F000E0D0C5E9004EDDE702B9FFDEB2FA82F2D6
:10030000002A40F09280A1EB0C014FEA1C471FFA33
:100310008CFE0126200CB1FBF7F307FB131140EA1A
:1003200001410EFB03F0884208D91CEB010103F1E7
:10033000FF3802D2884200F2CB804346091AA4B2A9
:10034000B1FBF7F007FB101144EA01440EFB00FE7D
:10035000A64508D91CEB040400F1FF3102D2A645E2
:1003600000F2BB800846A4EB0E0440EA03409CE781
:10037000C6F12007B34022FA07FC4CEA030C20FA2E
:1003800007F401FA06F31C43F9404FEA1C4900FA4E
:1003900006F3B1FBF9F8200C1FFA8CFE09FB1811CB
:1003A00040EA014108FB0EF0884202FA06F20BD93E
:1003B0001CEB010108F1FF3A80F08880884240F28E
:1003C0008580A8F102086144091AA4B2B1FBF9F0D2
:1003D00009FB101144EA014100FB0EFE8E4508D9CD
:1003E0001CEB010100F1FF346CD28E456AD9023852
:1003F000614440EA0840A0FB0294A1EB0E01A14237
:10040000C846A64656D353D05DB1B3EB080261EBA4
:100410000E0101FA07F722FA06F3F1401F43C5E97E
:10042000007100263146BDE8F087C2F12003D840B4
:100430000CFA02FC21FA03F3914001434FEA1C47F6
:100440001FFA8CFEB3FBF7F007FB10360B0C43EAE8
:10045000064300FB0EF69E4204FA02F408D91CEB98
:10046000030300F1FF382FD29E422DD90238634496
:100470009B1B89B2B3FBF7F607FB163341EA034136
:1004800006FB0EF38B4208D91CEB010106F1FF3885
:1004900016D28B4214D9023E6144C91A46EA00467C
:1004A00038E72E46284605E70646E3E61846F8E60E
:1004B0004B45A9D2B9EB020864EB0C0E0138A3E757
:1004C0004646EAE7204694E74046D1E7D0467BE738
:1004D000023B614432E7304609E76444023842E7B0
:1004E000704700BFFE2820D00CD8042814D0F02874
:1004F00006D1104B1B68B3B133230B70012070473A
:1005000000207047FF2805D140230B7000234B705B
:100510000220704700207047074B186808609B88CE
:100520008B80062070471323E7E740230B700120E0
:10053000704700BF90000020A49200080378427822
:1005400043EA0223C3EBC3039B00013BFDD100231D
:100550000B700148704700BF010002000023437088
:1005600003700220704700000378427843EA0223B8
:10057000827843EA0243C27853EA02630AD0104AFF
:1005800093420AD90F4B01225A705A6000230B7014
:100590000D487047FF230B70FAE70A4A002050709D
:1005A0000A4A1A44B2FBF3F3022B06D9084AA2FB0B
:1005B00003235B08034A5360E8E70123FAE700BF1F
:1005C0003F6F4001EC010020010004007FDE80024B
:1005D000ABAAAAAA037803F0030201320448027608
:1005E000C3F38003437600230B704FF00110704774
:1005F000EC01002030B510F801CB154B83F81AC080
:10060000002213460CE010F801EB114CA51885F8F8
:100610001CE002F1100504EB4504A3807344013291
:100620006245F0D3002209E009488418247F1B1B8F
:1006300002F1180400EB4400838001326245F3D3D9
:1006400000230B700CF10100000440F0010030BDEC
:10065000EC0100200278084B1A73427890F802C02F
:1006600042EA0C221A82C278007942EA00225A82B7
:1006700000230B7001487047EC01002001000500C9
:1006800010B4831C447801E00533013C64B11A4680
:1006900012F801CB1CF0020FF6D01CF0100F01D0A5
:1006A0000533F2E71346F0E700220A704A70181A81
:1006B000000440F002005DF8044B704710B50C4692
:1006C000037823B1012B0AD0FF230B7009E0427895
:1006D00002F001024FF40051034805F0D2FB002361
:1006E0002370024810BD00BF000802400100020054
:1006F0002DE9F04786B00E4603783BB19846012BB2
:1007000006D0022B42D04FF0000838E04FF001082D
:1007100001253E4B1D70002401940294039404941F
:100720000594032301930295394F01A9384605F03A
:10073000CBFA4FF00409CDF80490112302930395EE
:1007400004940DEB0901384605F0BEFA1823019315
:100750000294039404940DEB0901384605F0B4FAB1
:100760002A462946384605F08CFB2A46022138469F
:1007700005F087FB2A464946384605F082FB86F895
:1007800000804FF0011006B0BDE8F0874FF0020A7C
:100790001E4B83F800A00024019402940394049457
:1007A00005940B23019301270297194D01A92846AF
:1007B00005F08AFA4FF00409CDF804901123029352
:1007C000039704940DEB0901284605F07DFA1023E8
:1007D00001930294039404940DEB0901284605F05B
:1007E00073FA3A463946284605F04BFB3A465146DD
:1007F000284605F046FB3A464946284605F041FBA7
:100800003A460821284605F03CFBB8E7EC010020F9
:100810000000024030B587B005460024084B1C702C
:10082000019402940394049405941F23019301A955
:10083000044805F049FA2C70012007B030BD00BF14
:10084000EC010020000002402DE9F04F87B002903B
:10085000039101F1020A4FF0000B9F4B83F800B0A7
:10086000861C90F80180CDF804B0CDF800B05B464E
:10087000F2E00C4605A9284602F0ECFE03460228E9
:1008800019D1611EBCB1944A1278002AF1D012E04D
:100890000C4605A90E2002F0DDFE0346022808D111
:1008A000611E9CB38C4A1278002AF1D0002200927B
:1008B00001E000220092012B40F036819DF81420C7
:1008C0008AF800209DF815208AF801209DF816204E
:1008D0008AF802209DF817208AF803200AF1040AFA
:1008E00015F0100F54D096F80190B37849EA032917
:1008F000F37849EA0349337949EA03690536774BC6
:100900005F8A15F0010F31D01C8A02E00094D2E713
:100910000C460021284602F09DFE0346022805D120
:10092000611E1CB16C4A1278002AF1D0012B1DD037
:100930004146EBE0144605A9284602F08BFE03462B
:10094000022805D1621E1CB1634909780029F1D043
:10095000012B0ED1614A526905990A404A4508D0D7
:10096000791E37B15C4A12781AB90F465B4B1C8A64
:10097000E1E75A4A526905990A404A4502D040F0D7
:100980001000C3B2012B40F0DB80002201925BE03B
:10099000524A148A15F0010F1CD0009A22B13E462B
:1009A0000022019250E00C460021284602F052FE3F
:1009B0000346022805D1611E1CB1474A1278002A5D
:1009C000F1D0012B40F0B380009A019200933E4693
:1009D0003AE00C4605A9284602F03CFE03460228F0
:1009E00005D1611E1CB13C4A1278002AF1D0012BBE
:1009F00040F0A0809DF814208AF800209DF8152072
:100A00008AF801209DF816208AF802209DF8172008
:100A10008AF803200AF1040A3E460022019213E0FC
:100A2000009B73BB7378B27843EA0223F27843EAFF
:100A30000243327943EA02630593053615F0200F2D
:100A400047D0264A536101230BF1010B224A127849
:100A5000002A79D108F1FF38B8F1000F52D037469B
:100A600017F8015B15F0020FDAD0009A002A3FF464
:100A700037AF1A4B1C8A05F01103012B7FF409AF25
:100A8000F8E6164B1C8A00E00C4605A90E2002F081
:100A9000E1FD0346022805D1611E1CB10E4A127801
:100AA000002AF1D0012B48D19DF814308AF800308B
:100AB0009DF815308AF801309DF816308AF802301A
:100AC0009DF817308AF803300AF1040A00230093D6
:100AD000A8E7024B1C8A04E030020020EC01002051
:100AE0000C4605A9284602F0B5FD0346022805D1AB
:100AF000611E1CB13C4A1278002AF1D0012B21D191
:100B00000193A1E7414601E005360139F1B13246D2
:100B100012F8010B10F0020FF6D010F0100F01D0F8
:100B20000536F2E71646F0E73E464146EEE73E461A
:100B30004146EBE73E464146E8E73E464146E5E7AB
:100B40004146E3E74146E1E74146DFE7012B0CD0B0
:100B5000039A82F800B05370029BF61AAAEB0200C7
:100B600040EA064007B0BDE8F08F009A2AB31F4B59
:100B70001C8A00E00C4605A90E2002F06BFD03461E
:100B8000022805D1611E1CB1174A1278002AF1D043
:100B9000012BDDD19DF814208AF800209DF8152046
:100BA0008AF801209DF816208AF802209DF8172067
:100BB0008AF803200AF1040ACAE7019A002AC7D07A
:100BC0000A4B1C8A00E00C4600210E2002F042FD78
:100BD00003460228BCD1611E002CB9D0024A12780B
:100BE000002AF0D0B4E700BF30020020EC01002062
:100BF0002DE9F04782B08846CF1C544B00221A7072
:100C00004478837854EA032400F08B80061DC3786F
:100C10001D4613F0020F6ED013F0010F42D04C4B63
:100C20001E8A00E00E460021284602F013FD03460E
:100C3000022805D1711E1EB1444A1278002AF1D053
:100C4000012B30D000246DE015F0010F27D00E25C8
:100C500025E00E4601A9284602F0FCFC03460228C6
:100C600005D1711E1EB1394A1278002AF1D0012B2C
:100C700058D19DF804203A709DF805207A709DF8AF
:100C80000620BA709DF80720FA7001344A460437EE
:100C900002F1FF39002A45D0B9F1000FD4D02C4B16
:100CA0001E8AD7E7002322460024F1E7144601A953
:100CB000284602F0CFFC0346022805D1621E1CB173
:100CC000224909780029F1D0012B38D109F1010915
:100CD000544604F1FF3A8CB13378727843EA022328
:100CE000B27843EA0243F27843EA0263019304369E
:100CF000174B1C8ADBE74FF00009EAE7144B1C8A0C
:100D000000E00C4600210E2002F0A4FC034602285D
:100D100017D1611EBCB10D4A1278002AF1D04C46A1
:100D200000E0234688F80040C4F3072488F8014017
:100D300088F80230A7EB080002B0BDE8F0874C4607
:100D4000F0E74C46EEE74C46ECE700BF30020020EF
:100D5000EC01002010B582B00C464378827843EA5B
:100D60000223C27843EA0243027943EA0263019311
:100D700001A9002002F06EFC00232370012002B0C4
:100D800010BD38B50D46014611F8014B0CB94FF4B2
:100D90008074204602F0BAFB00232B70E01DC008CF
:100DA0000130000440F0010038BD00002DE9F04F93
:100DB00087B00F46002307F8013B10F8013B4FF0C6
:100DC0000109C84622E00734E4084FFA8AFBBBF168
:100DD000000F25DB002301930293039304930593F3
:100DE000022301930123029301A9214804F06CFF1F
:100DF0003A462946504602F0C3FBF6B1BBF1000F5C
:100E00002ADB2819A04408F1010833465E1E4BB3C3
:100E1000054615F801AB1AF03F04D4D14024D2E7BF
:100E200000230193029303930493059302230193F8
:100E300001A90F4804F048FFDAE700230193029369
:100E4000039304930593022301930123029301A9C1
:100E5000074804F039FFD1E708F101082744A1440D
:100E60002846D2E749EA084007B0BDE8F08F00BF46
:100E7000000002402DE9F0470F46002307F8013B30
:100E800010F8013B4FF001094E460EE00734E4082C
:100E90003A465146284601F093FB0AEB04002644EB
:100EA000013615F0800F0BD1434603F1FF3853B1E3
:100EB00082461AF8015B15F03F04E7D14024E5E7CC
:100EC0002744A144F0E749EA0640BDE8F087000066
:100ED00010B50C46104B1B78022B05D103780E4A37
:100EE000D376927E934204D3FF2323704FF00110F8
:100EF00010BD0E2001F0CEFD01F0C0FB00232370D9
:100F00006070C0F30723A370C0F30743E370000EC3
:100F100020710248ECE700BFEC0100200500010051
:100F20002DE9F04F87B00290039101F10209A04B27
:100F300000221A70064616F8013B9E4AD376927E2E
:100F4000934280F0C481861C47780023019300936C
:100F50009B46B846D6E00A24DFE00F4605A928469E
:100F600001F0A4FD0346022819D1791EBFB1904AB1
:100F70001278002AF1D012E00F4605A90E2001F0E8
:100F800095FD0346022808D1791E2FB3884A1278AE
:100F9000002AF1D00022009201E000220092012BF1
:100FA00040F039819DF8142089F800209DF8152023
:100FB00089F801209DF8162089F802209DF8172055
:100FC00089F8032009F1040915F0100F06D1009AE1
:100FD000002A5AD056468CE00097E0E796F801A028
:100FE000B3784AEA032AF3784AEA034A33794AEAA9
:100FF000036A05366F4B5F8A019BA34202D16D4B9A
:101000001C8A05E0204601F045FD0194F7E70C46F7
:101010000021284601F04AFD0346022805D1611E41
:101020001CB1634A1278002AF1D0012B1DD047462B
:10103000E3E0144605A9284601F038FD03460228DE
:1010400005D1621E1CB15A4909780029F1D0012B43
:101050000ED1584A526905990A40524508D0791E66
:1010600037B1534A12781AB90F46524B1C8AE1E73E
:10107000504A526905990A40524502D040F010008A
:10108000C3B2012B35D04746B7E0019BA34202D142
:10109000484B1C8A05E0204601F0FCFC0194F7E770
:1010A0000C460021284601F001FD0346022805D127
:1010B000611E1CB13E4A1278002AF1D0012B40F08B
:1010C000AD800093564614E0009B002B3FD173780F
:1010D000B27843EA0223F27843EA0243327943EAE0
:1010E00002630593053615F0200F65D0314A536130
:1010F00001230BF1010B2E4A1278002A40F0948054
:1011000008F1FF38B8F1000F73D0B2461AF8015B4E
:1011100015F0010F3FF41FAF0B2415F0020FD3D0D1
:10112000009A002A3FF450AF224B1F8A019BA34232
:1011300003D115F0100F3FF411AF019B0A2B3FF4C0
:101140001CAF0A2001F0A6FC0A23019315E7019BBE
:101150000A2B02D1174B1F8A06E00A2001F09AFCE5
:101160000A230193F6E70F4605A90E2001F09EFC25
:101170000346022805D1791E1FB10D4A1278002AB4
:10118000F1D0012B4DD19DF8143089F800309DF835
:10119000153089F801309DF8163089F802309DF835
:1011A000173089F8033009F10409002300938EE712
:1011B00030020020EC010020019BA34202D1454BEC
:1011C0001C8A05E0204601F065FC0194F7E70C4617
:1011D00005A9284601F06AFC0346022805D1611ED4
:1011E0001CB13D4A1278002AF1D0012B81D047462C
:1011F00003E0474601E00536013FBFB1324612F831
:10120000011B11F0020FF6D011F0100F01D00536BE
:10121000F2E71646F0E747465646EEE7474656469B
:10122000EBE747465646E8E74746E6E7012B0CD092
:10123000039A82F800B05370029BF61AA9EB0200E1
:1012400040EA064007B0BDE8F08F019B0A2B04D1AD
:10125000009B4BB31F4B1C8A04E00A2001F01AFCD0
:10126000F6E70C4605A90E2001F020FC03460228F3
:1012700005D1611E1CB1184A1278002AF1D0012B49
:10128000D6D19DF8142089F800209DF8152089F802
:1012900001209DF8162089F802209DF8172089F872
:1012A000032009F10409C3E70A4B1C8A00E00C463D
:1012B00000210E2001F0FAFB03460228B8D1611E7E
:1012C000002CB5D0044A1278002AF0D0B0E70023F1
:1012D0009B46ADE7EC0100203002002008B5074B2B
:1012E0001B78012B04D0022B05D0FFF7C9F901E0D0
:1012F000FFF7AAFA08BDFFF713FEFBE7EC01002099
:101300002DE9F04F83B00F4601F10308654B002231
:101310001A700378644AD376927E934280F0A98053
:101320004478837854EA032400F0AF80061D90F8D7
:1013300003904D4619F0010F0AD04FF00B0B5846A1
:1013400001F0A8FB19F0020F76D0574B1E8A03E07C
:101350004FF00A0BF3E70E460021284601F0A6FBEA
:101360000346022805D1711E1EB14E4A1278002A8A
:10137000F1D0012B40F08B804FF000092EE0BBF143
:101380000A0F01D10E252DE00A2001F083FB0E2566
:1013900028E00C4601A9284601F088FB03460228F4
:1013A00005D1611E1CB13F4A1278002AF1D0012BF1
:1013B0006FD19DF8042088F800209DF8052088F85A
:1013C00001209DF8062088F802209DF8072088F863
:1013D000032009F10109344608F10408661E24B10E
:1013E000002ECCD0304B1C8AD4E74C4643E0144648
:1013F00001A9284601F05AFB0346022805D1621EC6
:101400001CB1284909780029F1D0012B43D109F1F9
:101410000109544604F1FF3A8CB13378727843EAFB
:101420000223B27843EA0243F27843EA026301936B
:1014300004361D4B1C8ADBE74FF00009EAE7BBF1DD
:101440000A0F02D1184B1C8A04E00A2001F022FB8B
:10145000F8E70C4600210E2001F028FB0346022885
:101460001BD1611EDCB10F4A1278002AF1D04C4624
:1014700001E000231C463C70C4F307247C70BB7061
:10148000A8EB070003B0BDE8F08F2346F3E7002484
:10149000F1E74C46EFE74C46EDE74C46EBE74C46B0
:1014A000E9E700BF30020020EC01002010B504463F
:1014B0000F4B1B78012B07D0022B0ED000230B7093
:1014C0004B708B70032001E0FFF792FBE37813F081
:1014D000020F05D040F4802010BDFFF711FFF5E7A3
:1014E0006378A27843EA0223013340EA8340F3E7BA
:1014F000EC01002038B50D4603780E4AD376927E73
:10150000934203D3FF230B70012038BD044608200B
:1015100001F0C0FA6378A07843EA0023E07843EA58
:101520000043207943EA006001F06AF900232B7040
:10153000EAE700BFEC01002008B5094B1B78012B3E
:1015400005D0022B08D0FF230B70012001E0FFF72C
:1015500001FC40F4A02008BDFFF7CCFFF9E700BF75
:10156000EC01002046F6605303FB00F00138FDD18A
:10157000704700002DE9F04F89B00191067844785A
:101580008578C37845EA0325037945EA034543791D
:1015900045EA036514F0010707D016F0010F21D0CA
:1015A00001221146694804F06CFC14F0020807D0CF
:1015B00016F0020F1CD001220221644804F061FCE5
:1015C00014F004091AD104F0200A64B2002C1CDBC8
:1015D000002D00F086805E4BD3F804B023464446CD
:1015E000984669E000220121584804F04AFCDCE7F3
:1015F00000220221554804F044FCE1E7C6F38002D2
:101600000821524804F03DFCDDE7F3092ED0DFF855
:101610003CB101220421584604F033FC002303931B
:1016200004930593069307930423039303A9584651
:1016300004F04AFB16F0070FCAD1464B1B78012B6A
:10164000C6D100230393444B039303A9052002F062
:1016500001F80120FFF786FF404B039303A90D20FB
:1016600001F0F8FF0120FFF77DFFB1E74FF0000B1D
:10167000CDF80CB0CDF810B0CDF814B0CDF818B04E
:10168000CDF81CB004230393112304930123059385
:1016900003A92E4804F018FB5A4604212B4804F0F5
:1016A000F0FBC7E70121294804F0E4FB864205D09E
:1016B000274B5B689B4514D1002FF3D1ACBBB9F12C
:1016C000000F3AD1BAF1000F01D07309F0D1B8F18F
:1016D000000F06DAF50904211C4804F0CBFB854213
:1016E000E6D11A4D0121284604F0C4FB044602212C
:1016F000284604F0BFFB44EA40040821284604F0D1
:10170000B9FB44EA80041021284604F0B3FB44EA04
:10171000C0040421284604F0ADFB44EAC014019B38
:101720001C700F4809B0BDE8F08F7508022107480A
:1017300004F0A0FB8542C2D0BAE7B50808210348EF
:1017400004F098FB8542BDD0B2E700BF0000024024
:10175000001000E0EC0100200CED00E00400FA05B0
:1017600001000600FF230B704FF00110704710B509
:1017700003460C46027882F080011F2916D92146C3
:1017800001F8012B01301D2A53D8DFE802F0131BAA
:10179000202346494C524F272A52525252522E3140
:1017A00034373D40435252525252523A2146FFF78B
:1017B000D9FF0BE0A11C5878FEF794FE607000F191
:1017C000021003E0FEF77AFF00F1011010BDFEF7F2
:1017D0008FFFF9E70846FFF71DF8F5E7FEF7AEFEC5
:1017E000F2E70846FEF7BAFEEEE7FFF7C3FEEBE7C7
:1017F000FEF7BAFEE8E7FFF7C4FAE5E7FEF7EAFE10
:10180000E2E7FFF7D3FADFE7FFF734FBDCE7FEF7A9
:10181000F1FED9E7FFF75CFBD6E7FEF71BFFD3E746
:10182000FFF75CFDD0E7FFF741FECDE7FFF784FE51
:10183000CAE7FF2323704FF00110C7E7F8B503781C
:101840007F2B04D0FFF793FF05462846F8BD0C46D2
:1018500004F8023B861C43784B704FF0021509E0F8
:1018600021463046FFF783FF054406EB104614FA85
:1018700080F43B465F1E002BF2D1E6E72DE9F043F2
:1018800089B03A4B00241C705C7028225A601C738B
:1018900064221A825C825C6101251D765C769C76EE
:1018A0000194334F3B6B2B433B633B6B2B400193CA
:1018B000019B039404940594069407940B230393CB
:1018C00004952C4E03A9304604F0FEF94FF00409AC
:1018D000CDF80C904FF01108CDF8108005950694C6
:1018E00003A9304604F0F0F91023039304940594FF
:1018F000069403A9304604F0E7F92A462946304603
:1019000004F0BFFA2A460221304604F0BAFA2A4609
:101910004946304604F0B5FA2A460821304604F01C
:10192000B0FA02943B6B43EA09033B633B6B03EA67
:1019300009030293029B039404940594069407946C
:101940004FF400560396CDF8108004F1804404F55E
:10195000023403A9204604F0B7F92A46314620464E
:1019600004F08FFA09B0BDE8F08300BFEC0100205D
:10197000003802400000024070B505466D4C01225F
:101980000221204604F07DFA00220121204604F0C5
:1019900078FA01221146204604F073FA0022012150
:1019A000204604F06EFA01221146204604F069FA3E
:1019B00000220221204604F064FA00220121204680
:1019C00004F05FFA01221146204604F05AFA002280
:1019D0000121204604F055FA01221146204604F068
:1019E00050FA01220821204604F04BFA524BDA7ECD
:1019F000103203EB42039C880BE04E4E0022012183
:101A0000304604F03EFA01221146304604F039FA1D
:101A1000013C002CF1D1484BDA7E13441E7F013E7D
:101A200012E0444C05F001020821204604F029FA96
:101A300000220121204604F024FA0122114620460A
:101A400004F01FFA6D08013E002EEAD13A4BDA7E0F
:101A5000183203EB42039C88002C54D0354E05F01D
:101A600001020821304604F00CFA00220121304620
:101A700004F007FA01221146304604F002FA01226E
:101A80000821304604F0FDF9013C64B1294D0022E3
:101A90000121284604F0F5F901221146284604F0F8
:101AA000F0F9013CF1E7234C01220221204604F029
:101AB000E8F900220121204604F0E3F90122114651
:101AC000204604F0DEF91B4C00220121204604F0E0
:101AD000D8F901221146204604F0D3F90022022150
:101AE000204604F0CEF900220121204604F0C9F975
:101AF00001221146204604F0C4F9012208212046A3
:101B000004F0BFF970BD0B4C01220221204604F005
:101B1000B8F905F001020821204604F0B2F90022CC
:101B20000121204604F0ADF901221146204604F0BF
:101B3000A8F9C8E700000240EC010020F8B505460E
:101B4000864E01220221304604F09BF90022012139
:101B5000304604F096F9824C6368013BFDD10122C6
:101B60001146304604F08DF96368013BFDD1002237
:101B70000121304604F085F96368013BFDD1012263
:101B80001146304604F07DF96368013BFDD1002227
:101B90000221304604F075F900220121304604F09C
:101BA00070F96368013BFDD101221146304604F013
:101BB00068F96368013BFDD100220121304604F041
:101BC00060F96368013BFDD101221146304604F003
:101BD00058F96368013BFDD101220821304604F029
:101BE00050F9E37E103304EB4304A48812E05B4F0A
:101BF00000220121384604F044F9594E7368013B34
:101C0000FDD101221146384604F03BF97368013BCF
:101C1000FDD1013C002CEAD1514BDA7E13441E7FEA
:101C2000013E19E04D4C05F001020821204604F068
:101C300028F900220121204604F023F9484F7B684F
:101C4000013BFDD101221146204604F01AF97B68C0
:101C5000013BFDD16D08013E002EE3D1404BDA7E01
:101C6000183203EB42039C88002C7BD03B4E05F0DE
:101C700001020821304604F004F900220121304617
:101C800004F0FFF8364D6B68013BFDD1012211468F
:101C9000304604F0F6F86B68013BFDD101220821C3
:101CA000304604F0EEF8013C9CB12C4E002201219C
:101CB000304604F0E6F82A4D6B68013BFDD1012265
:101CC0001146304604F0DDF86B68013BFDD1013C64
:101CD000EAE7224C01220221204604F0D2F8002239
:101CE0000121204604F0CDF81D4D6B68013BFDD16C
:101CF00001221146204604F0C4F86B68013BFDD177
:101D0000164C00220121204604F0BBF8144D6B68EC
:101D1000013BFDD101221146204604F0B2F86B6868
:101D2000013BFDD100220221204604F0AAF8002246
:101D30000121204604F0A5F86B68013BFDD101228A
:101D40001146204604F09DF86B68013BFDD101224D
:101D50000821204604F095F8F8BD00BF00000240BD
:101D6000EC0100200E4C01220221204604F089F8EB
:101D700005F001020821204604F083F80022012129
:101D8000204604F07EF8074D6B68013BFDD101222F
:101D90001146204604F075F86B68013BFDD1AFE7B2
:101DA00000000240EC0100202DE9F84F074688466C
:101DB000D54C01220221204604F063F800220121C3
:101DC000204604F05EF801221146204604F059F83E
:101DD00000220221204604F054F80022012120466E
:101DE00004F04FF801221146204604F04AF8002280
:101DF0000121204604F045F801221146204604F056
:101E000040F8C24BDD7E0BE0BF4C00220121204692
:101E100004F037F801221146204604F032F8013D63
:101E2000002DF1D1B84CC7F340020821204604F040
:101E300028F800220121204604F023F81021204632
:101E400004F018F8824601221146204604F019F8E1
:101E50004FEA4A0AC7F380020821204604F011F82D
:101E600000220121204604F00CF81021204604F045
:101E700001F8064601221146204604F002F84AEA1B
:101E8000060AC7F3C0020821204603F0FAFF002229
:101E90000121204603F0F5FF1021204603F0EAFF60
:101EA000064601221146204603F0EBFF4AEA860B64
:101EB000BBF1010F06D117F0020F6ED1D8F80080E8
:101EC0001F25BDE001220221204603F0DAFF002297
:101ED0000121204603F0D5FF01221146204603F0E0
:101EE000D0FF894C00220121204603F0CAFF0122C5
:101EF0001146204603F0C5FF00220221204603F0D0
:101F0000C0FF00220121204603F0BBFF0122114641
:101F1000204603F0B6FF01220821204603F0B1FF5E
:101F200017F0800F03D07A4B5A68784B9A60774B42
:101F30001B7BE2E0DFF8D0A100220121504603F034
:101F4000A0FF1021504603F095FF044601221146E0
:101F5000504603F096FF45EAC4746508013E002E22
:101F6000E8D16A4B9C7E93F81B90A4EB0909B9F168
:101F7000010F3BD0644C00220121204603F081FF79
:101F80001021204603F076FF8246012211462046AA
:101F900003F077FFA9F102040DE01F26DFE75A4E98
:101FA00000220121304603F06CFF01221146304629
:101FB00003F067FF013C002CF1D1534C01220221B8
:101FC000204603F05EFF00220121204603F059FF66
:101FD00001221146204603F054FF45EACA75B8F1C4
:101FE000000F3FF47EAFC8F800507AE7464C01225C
:101FF0000221204603F045FF00220121204603F084
:1020000040FF1021204603F035FF82460122114691
:10201000204603F036FFE0E73B4C08F001020821C0
:10202000204603F02EFF00220121204603F029FF65
:1020300001221146204603F024FF4FEA5808013DD3
:10204000002DE9D1314B9C7EDB7EE41A012C31D08E
:102050002D4D08F001020821284603F012FF00224E
:102060000121284603F00DFF01221146284603F006
:1020700008FF023C0BE0244D00220121284603F01A
:1020800000FF01221146284603F0FBFE013C002C14
:10209000F1D11D4C01220221204603F0F2FE002264
:1020A0000121204603F0EDFE01221146204603F0F7
:1020B000E8FE16E7144C01220221204603F0E1FE5F
:1020C00008F001020821204603F0DBFE0022012176
:1020D000204603F0D6FE01221146204603F0D1FE31
:1020E000FFE6094C00220121204603F0CAFE01222E
:1020F0001146204603F0C5FE2B465D1E002BF0D195
:102100005FFA8BF0BDE8F88F00000240EC01002080
:10211000001000E02DE9F04F83B006468946804C60
:1021200001220221204603F0ACFE002201212046BC
:1021300003F0A7FE7B4D6B68013BFDD101221146E8
:10214000204603F09EFE6B68013BFDD10022022178
:10215000204603F096FE00220121204603F091FE66
:102160006B68013BFDD101221146204603F089FE38
:102170006B68013BFDD100220121204603F081FE66
:102180006B68013BFDD101221146204603F079FE28
:102190006B68013BFDD1EF7E12E0614D0022012111
:1021A000284603F06EFE5F4C6368013BFDD10122BF
:1021B0001146284603F065FE6368013BFDD1013FEF
:1021C000002FEAD1564CC6F340020821204603F006
:1021D00058FE00220121204603F053FE514D6B684A
:1021E000013BFDD11021204603F044FE824601222E
:1021F0001146204603F045FE6B68013BFDD14FEAD6
:102200004A0AC6F380020821204603F03AFE002263
:102210000121204603F035FE6B68013BFDD1102102
:10222000204603F027FE804601221146204603F097
:1022300028FE6B68013BFDD14AEA0808C6F3C002DC
:102240000821204603F01DFE00220121204603F054
:1022500018FE6B68013BFDD11021204603F00AFEF9
:10226000824601221146204603F00BFE6B68013BBB
:10227000FDD148EA8A030193012B07D116F0020F22
:1022800040F09880D9F800801F2709E1012202213F
:10229000204603F0F6FD00220121204603F0F1FD67
:1022A0006B68013BFDD101221146204603F0E9FD98
:1022B0006B68013BFDD11A4C00220121204603F03E
:1022C000E0FD184F7B68013BFDD1012211462046FD
:1022D00003F0D7FD7B68013BFDD10022022120469F
:1022E00003F0CFFD00220121204603F0CAFD7B68E8
:1022F000013BFDD101221146204603F0C2FD7B685F
:10230000013BFDD101220821204603F0BAFD16F061
:10231000800F02D0044B5A68BA60024B1B7B42E12B
:1023200000000240EC010020001000E0DFF88CA269
:1023300000220121504603F0A4FDDFF87CB2DBF857
:102340000430013BFDD11021504603F093FD0446BB
:1023500001221146504603F094FDDBF80430013BA6
:10236000FDD147EAC4777F08013D002DDED1924BB5
:102370009C7EDB7EE41A012C57D0DFF840A20022BD
:102380000121504603F07DFDDFF82CB2DBF804306C
:10239000013BFDD11021504603F06CFD8046012227
:1023A0001146504603F06DFDDBF80430013BFDD1D2
:1023B000023C15E01F25D8E7DFF800B2002201211A
:1023C000584603F05EFD7C4D6B68013BFDD1012258
:1023D0001146584603F055FD6B68013BFDD1013CA9
:1023E000002CE9D1754C01220221204603F049FD61
:1023F00000220121204603F044FDDFF8BCA1DAF8F9
:102400000430013BFDD101221146204603F039FD85
:10241000DAF80430013BFDD147EAC877B9F1000F83
:102420003FF449AFC9F8007045E7644C012202212E
:10243000204603F026FD00220121204603F021FD65
:10244000DFF874A1DAF80430013BFDD110212046F9
:1024500003F010FD804601221146204603F011FDD5
:10246000DAF80430013BFDD1D6E7544C08F0010204
:102470000821204603F005FD00220121204603F03B
:1024800000FD4D4D6B68013BFDD1012211462046F8
:1024900003F0F7FC6B68013BFDD14FEA5808013FA0
:1024A000002FE2D1444B9C7EDB7EE41A012C49D004
:1024B000424F08F001020821384603F0E2FC0022F6
:1024C0000121384603F0DDFCDFF8EC80D8F8043059
:1024D000013BFDD101221146384603F0D2FCD8F869
:1024E0000430013BFDD1023C12E0344D00220121B9
:1024F000284603F0C6FC304F7B68013BFDD101222A
:102500001146284603F0BDFC7B68013BFDD1013C30
:10251000002CEAD1294C01220221204603F0B1FC13
:1025200000220121204603F0ACFC234F7B68013BD5
:10253000FDD101221146204603F0A3FC7B68013B3C
:10254000FDD1B8E61D4C01220221204603F099FC82
:1025500008F001020821204603F093FC002201212B
:10256000204603F08EFC144F7B68013BFDD1012215
:102570001146204603F085FC7B68013BFDD19AE6BD
:102580000E4E00220121304603F07BFC0A4C6368AA
:10259000013BFDD101221146304603F072FC636815
:1025A000013BFDD13B465F1E002BE9D19DF80400A5
:1025B00003B0BDE8F08F00BFEC0100200000024036
:1025C0002DE9F04F83B000908B46019210F03F0749
:1025D00000D14027009B13F0400F05D001220221BB
:1025E000244803F04EFC0FE000220221214803F0B2
:1025F00048FC09E02AFA06F6009B13F0800F03D08E
:10260000019A02F8016B0192002F30D01BF8018B68
:1026100008264FF0000A002EECD0002FEAD0154D0E
:1026200008F001020821284603F02BFC00220121BA
:10263000284603F026FCDFF84090D9F80430013B2F
:10264000FDD11021284603F015FC04460122114655
:10265000284603F016FCD9F80430013BFDD14FEABF
:102660005808E40144EA5A0A013E013FD3E703B0A7
:10267000BDE8F08F00000240EC0100202DE9F041A0
:102680005D4C01220221204603F0FBFB00220121C8
:10269000204603F0F6FB594D6B68013BFDD101224A
:1026A0001146204603F0EDFB6B68013BFDD1002293
:1026B0000221204603F0E5FB00220121204603F021
:1026C000E0FB6B68013BFDD101221146204603F07F
:1026D000D8FB6B68013BFDD100220121204603F0AD
:1026E000D0FB6B68013BFDD101221146204603F06F
:1026F000C8FB6B68013BFDD1EF7E12E03E4D00222E
:102700000121284603F0BDFB3C4C6368013BFDD131
:1027100001221146284603F0B4FB6368013BFDD15A
:10272000013F002FEAD11F261DE0334D0022012179
:10273000284603F0A6FBDFF8C480D8F80430013B3C
:10274000FDD11021284603F095FB044601221146D5
:10275000284603F096FBD8F80430013BFDD147EA48
:10276000C4746708013E002EDFD1234D01220221EF
:10277000284603F086FB00220121284603F081FB56
:102780001E4E7368013BFDD11021284603F072FBF9
:10279000044601221146284603F073FB7368013B8F
:1027A000FDD147EAC47400220121284603F069FBE9
:1027B0007368013BFDD101221146284603F061FBFD
:1027C0007368013BFDD100220221284603F059FB2A
:1027D00000220121284603F054FB7368013BFDD120
:1027E00001221146284603F04CFB7368013BFDD1E2
:1027F0002046BDE8F08100BF00000240EC0100204F
:10280000F8B50546634C01220221204603F039FB4E
:1028100000220121204603F034FB5F4E7368013B28
:10282000FDD101221146204603F02BFB7368013BCA
:10283000FDD100220221204603F023FB00220121CA
:10284000204603F01EFB7368013BFDD101221146B7
:10285000204603F016FB7368013BFDD100220121E5
:10286000204603F00EFB7368013BFDD101221146A7
:10287000204603F006FB7368013BFDD1F47E12E0B5
:10288000444F00220121384603F0FBFA424E7368A0
:10289000013BFDD101221146384603F0F2FA73687C
:1028A000013BFDD1013C002CEAD13A4C0022082129
:1028B000204603F0E6FA00220121204603F0E1FA67
:1028C000354E7368013BFDD101221146204603F0CD
:1028D000D8FA7368013BFDD100220121204603F0A4
:1028E000D0FA7368013BFDD101221146204603F066
:1028F000C8FA7368013BFDD100220121204603F094
:10290000C0FA7368013BFDD101221146204603F055
:10291000B8FA7368013BFDD11F2619E01D4C05F084
:1029200001020821204603F0ACFA002201212046D2
:1029300003F0A7FA184F7B68013BFDD10122114635
:10294000204603F09EFA7B68013BFDD16D08013EF5
:10295000002EE3D1104B9C7EDB7EE41A012C76D056
:102960000C4E05F001020821304603F08AFA0022DD
:102970000121304603F085FA074D6B68013BFDD11C
:1029800001221146304603F07CFA6B68013BFDD111
:10299000023C16E000000240EC0100203B4E002209
:1029A0000121304603F06DFA394D6B68013BFDD1D2
:1029B00001221146304603F064FA6B68013BFDD1F9
:1029C000013C002CEAD1314C01220221204603F0C7
:1029D00058FA00220121204603F053FA2C4D6B686F
:1029E000013BFDD101221146204603F04AFA6B68F3
:1029F000013BFDD1254C00220121204603F041FA84
:102A0000234D6B68013BFDD101221146204603F0A6
:102A100038FA6B68013BFDD100220221204603F009
:102A200030FA00220121204603F02BFA6B68013BAB
:102A3000FDD101221146204603F023FA6B68013BC9
:102A4000FDD101220821204603F01BFAF8BD0F4CEE
:102A500001220221204603F014FA05F001020821A8
:102A6000204603F00EFA00220121204603F009FA65
:102A7000074D6B68013BFDD101221146204603F052
:102A800000FA6B68013BFDD1B4E700BF00000240D3
:102A9000EC01002008B5044B5B7813B1FEF76CFF26
:102AA00008BDFFF74BF8FBE7EC01002008B5044B2D
:102AB0005B7813B1FFF778F908BDFFF72BFBFBE755
:102AC000EC0100202DE9F04F87B007468846D24C34
:102AD00001220221204603F0D4F9002201212046E0
:102AE00003F0CFF901221146204603F0CAF907F09E
:102AF00001020221204603F0C4F9002201212046F0
:102B000003F0BFF901221146204603F0BAF97D080F
:102B1000C7F340020221204603F0B3F9002201214D
:102B2000204603F0AEF901221146204603F0A9F930
:102B30003D44BE08C7F380020221204603F0A1F9FC
:102B400000220121204603F09CF901221146204673
:102B500003F097F93544FE08C7F3C002022120466E
:102B600003F08FF900220121204603F08AF90122A7
:102B70001146204603F085F9AA1902F0010202214C
:102B8000204603F07EF900220121204603F079F966
:102B900001221146204603F074F90022022120464A
:102BA00003F06FF900220121204603F06AF90122A7
:102BB0001146204603F065F901220221204603F068
:102BC00060F900220121204603F05BF90122114641
:102BD000204603F056F900230193029303930493D4
:102BE00005930223019301A9204603F06DF88B4B56
:102BF0001C7E0BE0884D00220121284603F041F99C
:102C000001221146284603F03CF9013C002CF1D189
:102C1000814D00220121284603F033F90221284684
:102C200003F028F9824601221146284603F029F9CB
:102C300000220121284603F024F90221284603F04E
:102C400019F9064601221146284603F01AF94AEA04
:102C5000460A00220121284603F013F902212846E2
:102C600003F008F9064601221146284603F009F947
:102C70004AEA8606012E09D0022E00F0E280042ED8
:102C800000F0DF80654B1C7E21343FE117F0020F1E
:102C90003CD1624B93F8189077E0DFF87CB10022CA
:102CA0000121584603F0EDF80221584603F0E2F8FE
:102CB000054601221146584603F0E3F8AA44ED0701
:102CC00045EA540409F1FF39B9F1000FE5D1DFF805
:102CD000489100220121484603F0D3F802214846DA
:102CE00003F0C8F8054601221146484603F0C9F82A
:102CF0008AEA050A1AF0010F00D00826B8F1000F81
:102D000001D0C8F80040454B1C7E0FE0A2464FF0B2
:102D10002009D9E7404D00220121284603F0B1F8EF
:102D200001221146284603F0ACF8013C002CF1D1F9
:102D300000230193029303930493059302230193C9
:102D40000123029301A9344802F0BEFF17F0800F5F
:102D500003D0334B5A68314B9A60304B1C7B002CAC
:102D600053D1012202212C4803F08BF8F0B2E4E0A9
:102D7000294C00220121204603F083F8012211464C
:102D8000204603F07EF809F1FF39B9F1000FEFD1C9
:102D90000023019302930393049305930223019369
:102DA0000123029301A91C4802F08EFFD8F80040CD
:102DB0004FF0200814E0184D04F0010202212846CB
:102DC00003F05FF800220121284603F05AF801229F
:102DD0001146284603F055F8A144640808F1FF386D
:102DE000B8F1000FE7D10C4C09F001020221204696
:102DF00003F047F800220121204603F042F80122A7
:102E00001146204603F03DF8A0E7002202210248C7
:102E100003F037F812E000BF00000240EC01002090
:102E2000001000E0464D00220121284603F029F859
:102E300001221146284603F024F8013C002CF1D170
:102E40008FE7404B5B7E13B117F0020F11D13D4B62
:102E50001C7E1CE03A4D00220121284603F011F8A7
:102E600001221146284603F00CF8013C002CF1D158
:102E7000EDE72124FAE7324D00220121284603F034
:102E800000F801221146284602F0FBFF013C002C0D
:102E9000F1D100230193029303930493059302233A
:102EA00001930123029301A9254802F00DFF254B50
:102EB0005B7E13B117F0020F06D0012202212048D9
:102EC00002F0DFFFF0B238E0002202211C4802F0DD
:102ED000D8FF21240BE01A4D00220121284602F0E0
:102EE000D0FF01221146284602F0CBFF013C002C06
:102EF000F1D1E2E7124D00220121284602F0C1FF84
:102F000001221146284602F0BCFF013C002CF1D101
:102F100000230193029303930493059302250195E3
:102F200001270297064C01A9204602F0CDFE3A4641
:102F30002946204602F0A5FFF0B207B0BDE8F08FA9
:102F400000000240EC0100202DE9F04F89B08046DE
:102F50000191634C01220221204602F092FF0022DF
:102F60000121204602F08DFF5E4D6B68013BFDD1D3
:102F700001221146204602F084FF6B68013BFDD11F
:102F800008F001020221204602F07BFF002201210D
:102F9000204602F076FF6B68013BFDD1012211460D
:102FA000204602F06EFF6B68013BFDD14FEA5806E8
:102FB000C8F340020221204602F063FF00220121F3
:102FC000204602F05EFF6B68013BFDD101221146F5
:102FD000204602F056FF6B68013BFDD146444FEAA4
:102FE0009807C8F380020221204602F04AFF00221F
:102FF0000121204602F045FF6B68013BFDD1012213
:103000001146204602F03DFF6B68013BFDD13E4476
:103010004FEAD807C8F3C0020221204602F031FF70
:1030200000220121204602F02CFF6B68013BFDD1FC
:1030300001221146204602F024FF6B68013BFDD1BE
:10304000F21902F001020221204602F01AFF0022CA
:103050000121204602F015FF6B68013BFDD10122E2
:103060001146204602F00DFF6B68013BFDD10022A6
:103070000221204602F005FF00220121204602F035
:1030800000FF6B68013BFDD101221146204602F092
:10309000F8FE6B68013BFDD101220221204602F0BF
:1030A000F0FE00220121204602F0EBFE6B68013B9E
:1030B000FDD101221146204602F0E3FE6B68013B80
:1030C000FDD10023039304930593069307930223F2
:1030D000039303A9204602F0F7FD2C7E17E000BF02
:1030E00000000240EC0100208A4E002201213046FF
:1030F00002F0C7FE884D6B68013BFDD101221146ED
:10310000304602F0BEFE6B68013BFDD1013C002C55
:10311000EAD1804D00220121284602F0B2FE7E4E07
:103120007368013BFDD10221284602F0A3FE8246CE
:1031300001221146284602F0A4FE7368013BFDD12E
:1031400000220121284602F09CFE7368013BFDD15C
:103150000221284602F08EFE07460122114628462B
:1031600002F08FFE7368013BFDD14AEA470A002254
:103170000121284602F085FE7368013BFDD1022142
:10318000284602F077FE074601221146284602F043
:1031900078FE7368013BFDD14AEA8707012F09D009
:1031A000022F00F01381042F00F010815A4B1C7E77
:1031B00021348CE118F0020F4BD1574B1D7E94E067
:1031C000544E00220121304602F05BFEDFF848A198
:1031D000DAF80430013BFDD10221304602F04AFE0C
:1031E000054601221146304602F04BFEDAF8043063
:1031F000013BFDD1AB44ED0745EA540409F1FF3929
:10320000B9F1000FDCD1434E00220121304602F01B
:1032100038FEDFF80491D9F80430013BFDD10221DA
:10322000304602F027FE054601221146304602F0E4
:1032300028FED9F80430013BFDD18BEA050B1BF0C9
:10324000010F00D00827019B03B11C60324B1C7E8C
:1032500016E0A3464FF02009D2E72E4E00220121AE
:10326000304602F00EFE2C4D6B68013BFDD1012271
:103270001146304602F005FE6B68013BFDD1013C72
:10328000002CEAD10023039304930593069307933C
:10329000022303930123049303A91E4802F014FDA3
:1032A00018F0800F03D01D4B5A681B4B9A601A4BC5
:1032B0001C7B002C6ED101220221164802F0E1FD98
:1032C000F8B21BE1134E00220121304602F0D9FD75
:1032D000114C6368013BFDD101221146304602F0DA
:1032E000D0FD6368013BFDD1013D002DEAD10023F3
:1032F00003930493059306930793022303930123F7
:10330000049303A9034802F0DFFC019B1C682026FC
:1033100025E000BF00000240EC010020001000E0AA
:10332000DFF8E09104F001020221484602F0A9FD15
:1033300000220121484602F0A4FDDFF8CCA1DAF812
:103340000430013BFDD101221146484602F099FDAF
:10335000DAF80430013BFDD125446408013E002E1B
:10336000DED1684C05F001020221204602F089FD01
:1033700000220121204602F084FD634D6B68013B71
:10338000FDD101221146204602F07BFD6B68013B16
:10339000FDD185E7002202215A4802F072FD12E0B9
:1033A000584E00220121304602F06BFD564D6B68ED
:1033B000013BFDD101221146304602F062FD6B68EF
:1033C000013BFDD1013C002CEAD174E74E4B5B7E02
:1033D00013B118F0020F18D14B4B1C7E2AE0494E56
:1033E00000220121304602F04CFD474D6B68013B45
:1033F000FDD101221146304602F043FD6B68013BCE
:10340000FDD1013C002CEAD1E6E72124FAE73D4E4C
:1034100000220121304602F034FD3B4D6B68013B38
:10342000FDD101221146304602F02BFD6B68013BB5
:10343000FDD1013C002CEAD10023039304930593B2
:1034400006930793022303930123049303A92D48B2
:1034500002F03AFC2C4B5B7E13B118F0020F06D041
:1034600001220221274802F00CFDF8B246E00022BA
:103470000221244802F005FD212412E0214E002201
:103480000121304602F0FDFC1F4D6B68013BFDD170
:1034900001221146304602F0F4FC6B68013BFDD17D
:1034A000013C002CEAD1DBE7164E00220121304618
:1034B00002F0E7FC144D6B68013BFDD1012211467F
:1034C000304602F0DEFC6B68013BFDD1013C002C74
:1034D000EAD10023039304930593069307930225EF
:1034E000039501260496074C03A9204602F0ECFB45
:1034F00032462946204602F0C4FCF8B209B0BDE8C5
:10350000F08F00BF00000240EC0100202DE9F843DD
:103510000E46002425461DE000220221164802F036
:10352000B0FCDFF8549000220121484602F0A9FCCB
:10353000DFF84880D8F80430013BFDD10122114664
:10354000484602F09EFCD8F80430013BFDD16D08DE
:10355000013C3846471E60B114B916F8015B0824D7
:1035600015F0010FD8D001220221034802F089FC96
:10357000D7E7BDE8F88300BF00000240EC0100205F
:103580002DE9F047904610F03F0400D1402410F0A0
:10359000800F04D12FE027FA06F608F8016B002C03
:1035A00051D008260027002EF5D0002CF3D0DFF8EC
:1035B0009C9000220121484602F063FCDFF890A0B5
:1035C000DAF80430013BFDD10221484602F052FCFA
:1035D000054601221146484602F053FCDAF8043051
:1035E000013BFDD1ED0145EA5707013E013CDAE719
:1035F000414600E0414634B3884618F8017B08266E
:10360000002EF7D0002CF3D0104D07F0010202215C
:10361000284602F036FC00220121284602F031FC47
:10362000DFF82C90D9F80430013BFDD1012211467E
:10363000284602F026FCD9F80430013BFDD17F0872
:10364000013E013CDCE7BDE8F08700BF000002401E
:10365000EC01002008B5044B5B7813B1FFF732FA98
:1036600008BDFFF771FCFBE7EC01002000230A4ACC
:1036700013800A4A13800A4A13800A4A13800A4AAE
:1036800013800A4A13800A4A13800A4A13800A4B9D
:1036900001221A70704700BF381200203A12002031
:1036A0003412002036120020422200204422002042
:1036B0003C2200203E2200204022002070470000D3
:1036C000012801D000207047012901D00020704757
:1036D0001D4A118889B21D4A128892B2914204D1C2
:1036E0001B4B01221A700020704710B5194A12882E
:1036F00091B2194A02EB811202F14004D2F800E0C3
:10370000D2F804C09068D168C3F800E0C3F804C0E0
:103710009860D96010321033A242EFD10D4A13885D
:103720009BB201339BB2138013889BB2402B07D00E
:10373000064A13889BB201339BB21380402010BD10
:10374000134600221A80F3E73C2200203E2200208C
:1037500040220020442200203C120020022801D0F8
:103760000120704710B5029A002A2AD01A78072A39
:1037700029D01B4A128892B21A49098889B2521A72
:1037800092B2402A23D0184C208880B2029A19465F
:10379000164B03EB801005F091FC23889BB201339C
:1037A0009BB2238023889BB2402B16D00C4A1388EF
:1037B0009BB201339BB2138001210D4B186804F0BA
:1037C00015FA012010BD0B4B01221A70F9E7802178
:1037D000074B186804F00AFAF3E700222280E5E7B5
:1037E000341200203612002038120020340200204B
:1037F000482200203002002008B54FF0FF3200219F
:10380000812004F03BFA434B1A8892B2424B1B884A
:103810009BB29A42F1D0414B1C88A4B204E0404BC9
:103820001B889BB2A3420DD0A3013E4AD35C7E2BE2
:1038300011D1A3013B4A7F21D1540134402CEED158
:103840000024ECE74FF0FF320021812004F016FA4B
:1038500010F0800FE8D0314C23889BB2324A128896
:1038600092B2324901EB82112E4800EB8310FDF732
:10387000E5FF23889BB201339BB2238023889BB250
:10388000402B3BD0244A13889BB201339BB2138058
:10389000254A13889BB201339BB2138013889BB2D5
:1038A000402B2ED0224A13889BB201339BB2138047
:1038B000204B1B78002BA6D0128892B21E4B1B887F
:1038C0009BB29A429FD01D4B1A8892B2511C89B26A
:1038D00019801B889BB2402B17D017490B889BB2CD
:1038E00001339BB20B800020124B187040230F490C
:1038F00001EB8212014600F023F884E700222280C7
:10390000C0E7134600221A80CCE70C4B0021198037
:10391000E3E700BF34120020361200203A120020E4
:103920003812002034020020422200203C120020E5
:103930003C220020402200203E2200204422002081
:1039400008B511469AB2024805F02BFB08BD00BF2E
:103950005022002000B583B040230093054BD3F8DC
:10396000BC32002211460220FFF7F8FE03B05DF8DA
:1039700004FB00BF5022002010B5094BD3F8BC4215
:103980002346002201210846FFF79AFE031E00DCB1
:1039900010BD224600210846FFF7D2FFF8E700BF1E
:1039A0005022002082B0002100910B4B1A6B42F094
:1039B00080021A631A6B02F080020092009A019151
:1039C0001A6B42F001021A631B6B03F001030193AF
:1039D000019B02B0704700BF0038024008B5FDF7F8
:1039E0004DFF00F087F8054A0021054804F092F8E1
:1039F000044B1860012004F0A7F9FBE7B892000817
:103A0000F93700084822002030B595B03022002157
:103A100008A805F061FB002403940494059406941F
:103A2000079401941D4B1A6C42F080521A641B6C6F
:103A300003F080530193019B0294194A136823F405
:103A4000404343F400431360136803F4404302937C
:103A5000029B012308934FF48033099302250E95AE
:103A60004FF480030F93192310934FF4A87311930D
:103A7000042312930723139308A801F0F9FD0F23E1
:103A80000393049505944FF48053069307942946B5
:103A900003A802F035F815B030BD00BF0038024071
:103AA0000070004008B502F04BFAFFF7ADFFFFF7DA
:103AB00079FF03F0EDFF054A0021054804F02AF8DC
:103AC000044B186004F002F8FEE700BFDC92000827
:103AD000DD3900084C22002008B50268034B9A42E9
:103AE00000D008BD02F046FAFBE700BF000001402D
:103AF0007047000008B500220F49104804F02EFC62
:103B000070B90F490D4804F045FC60B90D490B48E8
:103B100005F06FFA50B9094804F050FC48B908BDE7
:103B2000FFF7E6FFEDE7FFF7E3FFEFE7FFF7E0FF63
:103B3000F1E7FFF7DDFFF2E7000000205022002050
:103B4000980000207400002030B589B00023039352
:103B500004930593069307930368B3F1A04F01D034
:103B600009B030BD00250195164C236B43F00103CD
:103B70002363236B03F001030193019B4FF4C053B4
:103B8000039302230493032306930A23079303A9B1
:103B90000D4802F099F8636B43F08003636302956C
:103BA000636C43F480436364636C03F48043029367
:103BB000029B2A460521432002F07CF9432002F0B3
:103BC000B1F9CDE7003802400000024008B500F529
:103BD0007171D0F8040404F006FC08BD08B5C1EB0F
:103BE000C10300EB8303D3F80822D0F8040404F0E7
:103BF00026FC08BD08B5C1EBC10300EB83039A6C3A
:103C0000D0F8040404F054FC08BD08B5D0F804044E
:103C100004F0EAFC08BD10B50446C368022B09D1C4
:103C20000121D4F8040404F0C8FCD4F8040404F01E
:103C30009BFC10BDFFF75CFFF2E7000010B50446E7
:103C4000D0F8040404F0BCFC2268D2F8003E43F033
:103C50000103C2F8003E236A23B1034A136943F00B
:103C60000603136110BD00BF00ED00E008B5D0F8F9
:103C7000040404F0AEFC08BD08B5D0F8040404F058
:103C8000C3FC08BD08B5D0F8040404F0BBFC08BDB3
:103C900008B5D0F8040404F0B9FC08BD08B5D0F8A4
:103CA000040404F0B5FC08BD02780AB10020704796
:103CB00010B503461548C0F80434C3F8C4024FF0E9
:103CC000A0430360042343600222C2600023036117
:103CD0008261C36103624362C362036300F00CFA52
:103CE00080B90A4C8021204600F030FF402200219C
:103CF000204600F005FF80220121204600F000FF51
:103D0000002010BDFFF7F4FEEBE700BF20250020E8
:103D1000D0F8C43211F0800F08D101F07F01C1EB5F
:103D2000C10103EB810191F8FE01704701F07F01B1
:103D3000C1EBC10103EB810191F83E0070470328FC
:103D400005D8DFE800F005040205012070470320D4
:103D5000704708B5D0F8C40200F065FAFFF7EFFF2E
:103D600008BD08B594461A466346D0F8C40200F070
:103D70006CFDFFF7E4FF08BD08B5D0F8C40200F001
:103D8000A9FDFFF7DCFF08BD08B5D0F8C40200F0BC
:103D900038FEFFF7D4FF08BD08B5D0F8C40200F024
:103DA00074FEFFF7CCFF08BD08B5D0F8C40200F0E0
:103DB00038FDFFF7C4FF08BD08B5D0F8C40200F015
:103DC000F1FDFFF7BCFF08BD08B5D0F8C40200F054
:103DD000BAFDFFF7B4FF08BD12230B8000487047FF
:103DE0001C00002004230B80004870473000002096
:103DF000002393421ED200B510E00CF1370C01F8FD
:103E000013C000014FEA430C0CF1010C4FF0000EFF
:103E100001F80CE00133DBB2934209D24FEA107C87
:103E2000B0F1204FE9D20CF1300C01F813C0E8E7F3
:103E30005DF804FB7047000038B50B4BD3F8100A4F
:103E4000D3F8144AD3F8183AC01800D138BD074D3A
:103E50000822A91CFFF7CCFF042205F1120120461D
:103E6000FFF7C6FFF2E700BF0070FF1F340000201D
:103E700008B51A230B80FFF7DFFF014808BD00BF1C
:103E80003400002008B50A4628B90549054804F061
:103E9000F7FE034808BD0249024804F0F1FEF8E7C6
:103EA000282900200093000810B50A46034C21463B
:103EB000034804F0E5FE204610BD00BF282900207D
:103EC0000C93000808B50A4628B90549054804F0CE
:103ED000D7FE034808BD0249024804F0D1FEF8E7C6
:103EE000282900202093000808B50A4628B905496A
:103EF000054804F0C5FE034808BD0249024804F025
:103F0000BFFEF8E7282900203493000808B5FFF722
:103F100033FD002008BD000008B5FFF71BFD024877
:103F200005F05BF8002008BD5022002008B5FFF71F
:103F3000C5FB002008BD08B5FFF798FB002008BDB1
:103F40007047FEE7FEE7FEE7FEE7704708B5024868
:103F500002F04CF808BD00BF282B002008B502482D
:103F600000F024FA08BD00BF2025002000B583B072
:103F7000002200920D4B596C41F480415964596CF8
:103F800001F48041009100990192196C41F0805137
:103F900019641B6C03F080530193019B0F216FF098
:103FA000010001F087FF03B05DF804FB0038024018
:103FB00010B588B001460022192001F07BFF1920BE
:103FC00001F0B0FF00240194134B5A6C42F001023F
:103FD0005A645B6C03F001030193019B02A903A8DF
:103FE00001F054FE01F042FE0C4BA3FB00239B0C9E
:103FF000013B0B480B4A026040F2E732C26043606B
:104000000461846002F0FEF810B1012008B010BD18
:10401000034801F0D6FFF9E70038024083DE1B4376
:10402000282B0020000001402DE9F04383B0D0F898
:104030000080C1EBC10300EB83035A6D1B6D9A42F4
:1040400054D807460C469B1AC1EBC10200EB820212
:10405000526C9A4200D31A4602F103094FEA9909B9
:1040600015E006F103094FEA9909C4EBC40507EB13
:104070008505A96C3B7C0093B3B2E2B2404601F0E7
:10408000BBF8AB6C3344AB646B6D33446B6508EBCE
:10409000441303F510639B699BB24B4512D3C4EBE9
:1040A000C40207EB8202516D136D99420AD24BB1E3
:1040B0005B1AC4EBC40207EB8202566C9E42D0D35B
:1040C0001E46CEE7C4EBC40007EB80073A6D7B6D5C
:1040D0009A420FD804F00F040123A340D8F83448C3
:1040E00024EA0304C8F83448002000E0012003B0AB
:1040F000BDE8F0830020FAE770B58AB0002800F030
:1041000090800546046890F8BD333BB3032385F8DF
:10411000BD33E36B13F4807F01D100232B6128684A
:1041200000F0F6FD2C4654F8106BEC460FCCACE8D2
:104130000F000FCCACE80F0094E803008CE80300FC
:104140002B1D0ECB304600F025FD044658B102234E
:1041500085F8BD33012420460AB070BD80F8BC3319
:10416000FFF7F2FCD2E70021286800F0D7FD2346D4
:1041700016E0C3EBC30205EB8202012182F83D1079
:1041800082F83C30A2F84230002182F83F1051649E
:104190009164C3EBC30205EB820211650133DBB20C
:1041A00069688B42E5D316E0C4EBC40305EB8303D7
:1041B000002283F8FD2183F8FC4183F8FF21C3F836
:1041C0000422C3F80822C4EBC40305EB8303C3F83D
:1041D00010220134E4B2A142E6D82C4654F8106B08
:1041E000EC460FCCACE80F000FCCACE80F0094E825
:1041F00003008CE803002B1D0ECB304600F0D4FDED
:10420000044620B1022385F8BD330124A3E700232F
:1042100085F83830012385F8BD33286801F0A6F908
:1042200099E7012497E7026890F8BC33012B19D075
:1042300010B50446012380F8BC33836A012B09D0F2
:10424000206801F087F9206800F05CFD002084F808
:10425000BC0310BD8369012BF2D0936B43F4803310
:104260009363EDE70220704770B504460D46006881
:10427000066C00EB411303F530639A68216901294C
:1042800011D034498E424ED03DB9C5EBC50304EB85
:104290008303D3F81032002B56D0E9B22046FFF743
:1042A0009DFC002070BD12F0080F09D02A498E42F3
:1042B000F7D912F4004FF4D04FF400429A60F0E7BF
:1042C00012F0200F02D020229A60EAE712F0280FA5
:1042D000E7D121498E4206D912F4004F03D04FF4A2
:1042E00000429A60DDE7C5EBC50204EB8202D2F81A
:1042F00004121B69C3F31203CB1AC2F81432D2F8AA
:1043000008320B44C2F8083215B9D2F8103223B182
:10431000E9B22046FFF762FCC3E704F571720121A0
:1043200001F076F9F4E712F4004F03D04FF40042A5
:104330009A60B6E712F0200F01D020229A60E9B20D
:104340002046FFF74BFCACE704F57172002101F049
:104350005FF9A2E70A31544F0A30544F38B504468A
:1043600003681D6C03EB4113D3F8081B0E4A9542FA
:1043700007D903F5306311F4004F02D04FF4004227
:104380009A602046FFF722FC074B9D4202D9236921
:10439000012B01D0002038BD04F571720121206885
:1043A00001F036F9F6E700BF0A30544F2DE9F84F17
:1043B00004460568284601F016F908B1BDE8F88FF3
:1043C0000646206801F0DEF80028F7D0206801F0EA
:1043D000D9F810F0020F04D02268536903F00203E9
:1043E0005361206801F0CEF810F0100F13D022684E
:1043F000936923F0100393612F6A07F00F08C7F346
:104400004343022B68D0062B00F084802268936916
:1044100043F010039361206801F0B4F810F4002F0A
:1044200040F08A80206801F0ADF810F4802F40F051
:10443000CC80206801F0A6F80028C0F23681206800
:1044400001F0A0F810F4006F0AD0D5F8083813F086
:10445000010F40F044812268536903F40063536103
:10446000206801F08FF810F4805F40F03C812068F4
:1044700001F088F810F4005F40F09181206801F0AD
:1044800081F810F0080F40F0A281206801F07AF85E
:1044900010F4801F40F0A481206801F073F810F43C
:1044A000001F40F0A781206801F06CF810F0804FE9
:1044B00040F0AA81206801F065F810F0040F3FF485
:1044C0007DAF23685D6815F0040F40F0A681226877
:1044D00053682B43536071E747F6F0731F4295D042
:1044E0004FEA171BC8EBC80904EB8909C7F30A1286
:1044F000D9F80812284600F0B3FFCBF30A02D9F826
:1045000008321344C9F80832D9F814321A44C9F8E9
:1045100014227BE7082204F57171284600F0A0FF01
:10452000C7F30A17C8EBC80204EB8202D2F81432B0
:104530001F44C2F8147269E7206801F027F80746A3
:10454000B04616E005EB48130122C3F8082B41469C
:104550002046FFF789FE1BE005EB48130822C3F84D
:10456000082B41462046FFF7F9FE14E008F1010848
:104570007F08002F3FF456AF17F0010FF6D05FFA17
:1045800088F1206801F012F8814610F0010FD9D1AE
:1045900019F0080FE0D119F0100F04D005EB481303
:1045A0001022C3F8082B19F0200F04D005EB481394
:1045B0002022C3F8082B19F4005FD7D005EB48136D
:1045C0004FF40052C3F8082BD0E7206800F0E6FF54
:1045D0000746B04629E051462046FFF70BFB19F08D
:1045E000080F04D005EB48130822C3F8082919F076
:1045F000100F04D005EB48131022C3F8082919F056
:10460000400F04D005EB48134022C3F8082919F0E5
:10461000020F04D005EB48130222C3F8082919F051
:10462000800F3DD108F101087F08002F3FF401AF52
:1046300017F0010FF6D05FFA88FA5146206800F0B3
:10464000BEFF814610F0010FC9D008F00F03012111
:1046500001FA03F2D5F8343823EA0203C5F83438F6
:1046600005EB4813C3F8081923698B42B3D1C8EB93
:10467000C80304EB8303596C9A6C0A449A64B8F13A
:10468000000FA8D1C8EBC80304EB83031B6D002BFC
:10469000A1D104F571720121206800F0B9FF9AE7F9
:1046A00041462046FFF7C0FCBCE7D5F8043823F0AC
:1046B0000103C5F8043894F8F433012B08D02046E0
:1046C000FFF7D4FA2268536903F000435361B6E65A
:1046D000002184F8F413204600F03CFAF2E720466B
:1046E000FFF7ACFAB7E605F500677B6823F0010336
:1046F0007B601021206800F029FB20E005EB4613C9
:104700004FF67F31C3F80819D3F8002922F40012BC
:10471000C3F80029D3F8002942F00062C3F8002949
:10472000C3F8081BD3F8002B22F40012C3F8002BA7
:10473000D3F8002B42F00062C3F8002B0136636807
:10474000B342DBD8FB6943F00113FB61236BDBB1A0
:10475000D7F8843043F00B03C7F884307B6C43F008
:104760000B037B64D5F8003823F4FE63C5F80038EA
:1047700004F57172217C206800F04AFF22685369B9
:1047800003F48053536172E67B6943F4005343F0B2
:104790002B037B613B6943F00B033B61E2E720683D
:1047A00000F025FF206800F0C7FBE060256801F0FD
:1047B00057FA0146227B284600F032FA2046FFF7DE
:1047C0002AFA2268536903F40053536156E62046DF
:1047D000FFF71BFA2268536903F00803536154E69C
:1047E00000212046FFF74EFA2268536903F4801334
:1047F000536151E600212046FFF73EFA22685369D3
:1048000003F4001353614EE62046FFF741FA226895
:10481000536903F0804353614CE62046FFF73EFAAC
:1048200055E690F8BC33012B0DD010B5044601239A
:1048300080F8BC3380F83810006800F07BFE002060
:1048400084F8BC0310BD0220704738B505468C467D
:1048500011F0800F29D101F00F0ECEEBCE04A40091
:1048600004F5FC740444211DCEEBCE0E00EB8E0E3D
:1048700000208EF8FD010CF00F0C81F800C08A605A
:10488000CB704A780AB1A1F806C0022B1DD095F86A
:10489000BC33012B1CD0012385F8BC33286800F001
:1048A0005CFB002085F8BC0338BD01F00F00C0EBB5
:1048B000C0018900383129440431C0EBC00005EB48
:1048C0008000012480F83D40D5E700230B71DEE72E
:1048D0000220E9E710B504460A4611F0800F20D106
:1048E00001F00F00C0EBC0039B0003F5FC732344F1
:1048F000191DC0EBC00004EB8000002380F8FD31DF
:1049000002F00F020A7094F8BC33012B19D0012376
:1049100084F8BC33206800F06FFB002084F8BC03EF
:1049200010BD01F00F00C0EBC0039B0038332344DF
:10493000191DC0EBC00004EB8000012380F83D305E
:10494000DEE70220ECE710B501F00F04C4EBC40170
:10495000890001F5FC7101440431C4EBC40C00EB87
:104960008C0CCCF80822CCF810320023CCF814328E
:104970008CF8FD318CF8FC410369012B06D064B939
:10498000DAB2006800F0A8FB002010BDC4EBC40C34
:1049900000EB8C0CCCF80C22F1E7DAB2006800F0E6
:1049A00043FCF1E710B501F00F04C4EBC40189002A
:1049B000383101440431C4EBC40C00EB8C0CCCF84E
:1049C0004820CCF850300023CCF8543001238CF828
:1049D0003D308CF83C400369012B06D064B9DAB253
:1049E000006800F079FB002010BDC4EBC40C00EBA4
:1049F0008C0CCCF84C20F1E7DAB2006800F014FC23
:104A0000F1E738B501F00F054268954239D8044600
:104A10000B4611F0800F1FD1C1EBC101890001F5D8
:104A2000FC7101440431C3EBC30300EB8303002298
:104A300083F8FD2101238B700D7094F8BC33012B9A
:104A400021D0012384F8BC33206800F018FD8DB11B
:104A5000002084F8BC0338BDC5EBC501890038319E
:104A600001440431C5EBC50300EB8303012283F845
:104A70003D20DFE704F57172217C206800F0C8FD5D
:104A8000E6E70120E7E70220E5E701F00F034268CF
:104A9000934231D810B5044611F0800F1ED1C3EBFC
:104AA000C301890001F5FC7101440431C3EBC30269
:104AB00000EB8202002082F8FD0100228A700B7058
:104AC00094F8BC33012B19D0012384F8BC3320683F
:104AD00000F002FD002084F8BC0310BDC3EBC3014D
:104AE0008900383101440431C3EBC30200EB820278
:104AF000012082F83D00E0E7012070470220ECE74A
:104B000010B40468606A31B940EA0240A062002033
:104B10005DF8044B70478C46A36A00EB13400023FA
:104B200008E003F1400104EB8101496800EB11400A
:104B30000133DBB20CF1FF318B42F2D340EA024089
:104B40000CF13F0104EB81014860E0E70368596222
:104B50000020704770470000002301330C4A934245
:104B600011D80269002AF8DA036943F001030361EE
:104B700000230133064A934207D8026912F0010F5D
:104B8000F7D100207047032070470320704700BF13
:104B9000400D030084B010B5044603A880E80E0061
:104BA000089B012B1FD1A36B23F48033A363E3681D
:104BB00023F4840323F04003E360E36823F4401309
:104BC000E3600F9B012B09D02046FFF7C5FF069B32
:104BD000012B1BD0BDE8104004B07047E36843F4DC
:104BE0008013E360F0E7E36843F04003E3602046AE
:104BF000FFF7B2FF0C9B23B9A36B43F48033A3638D
:104C0000E5E7A36B23F48033A363E0E7A36843F0F5
:104C10000603A360A36843F02003A360DAE7000063
:104C2000022A0AD00921C26822F47052C260C36805
:104C300043EA8123C36000207047234B0B44234A7F
:104C400093422FD9224B0B44224A93422CD9A1F5EF
:104C50007403A3F51053204A934227D9A1F183731B
:104C6000A3F5E7431D4A934222D31D4B0B441D4A33
:104C700093421FD91C4B0B441C4A93421CD31C4B20
:104C80000B441C4A934219D3A1F1B773A3F55853AF
:104C9000194A934214D3194B0B44194A934211D227
:104CA0000721C0E70F21BEE70E21BCE70D21BAE7BF
:104CB0000C21B8E70B21B6E70A21B4E70921B2E7D6
:104CC0000821B0E70621AEE7405327FFFF340C0070
:104CD000401E1BFF3F420F007F4F120020D61300E3
:104CE00060B6E5FE5FE3160000D3CEFE40771B0002
:104CF000C05BB3FEC091210020753800E05459FE1E
:104D0000E09C4100836843F001038360002070470A
:104D1000836823F0010383600020704708B5C368EF
:104D200023F0C043C360012909D069B9C36843F0C7
:104D30008043C360322001F02FF9002008BDC36812
:104D400043F00053C360F5E70120F7E7890141F024
:104D50002001016100230133054A934205D802690D
:104D600012F0200FF7D1002070470320704700BFDA
:104D7000400D03001023036100230133054A9342D1
:104D800005D8026912F0100FF7D1002070470320F8
:104D9000704700BF400D0300D0F800381943C0F839
:104DA000001800207047000084B02DE9F04104464F
:104DB00007A880E80E00002306E003F1400204EBA0
:104DC00082020021516001330E2BF6D9119F27BBBF
:104DD000D4F8043843F00203C4F80438A36B43F456
:104DE0000013A363A36B23F40023A363A36B23F437
:104DF0008023A3630023C4F8003E04F50065D4F8C3
:104E00000038C4F800380C9B012B14D1099B6BB9F6
:104E100000212046FFF7C0FF11E0A36B23F400132D
:104E2000A363A36B43F40023A363E3E701212046BC
:104E3000FFF7B2FF03E003212046FFF7ADFF10218B
:104E40002046FFF783FF804608B14FF00108204657
:104E5000FFF790FF08B14FF0010800232B616B6151
:104E6000EB610AE0C3B94FF00060C2F8000900220C
:104E70000A614FF67F328A6001330799994210D94F
:104E800004EB431202F51061D2F800090028E9DBB7
:104E90000020C2F80009EAE74FF09040C2F800098C
:104EA000E5E700230AE0C3B14FF0904CC2F800CB15
:104EB000002202614FF67F3282600133994211D99C
:104EC00004EB431202F53060D2F8006B002EEADBEF
:104ED0004FF0000CC2F800CBEAE74FF0006CC2F8CC
:104EE00000CBE5E72B6923F480732B610023A361DA
:104EF0006FF0804363610A9B1BB9A36943F0100301
:104F0000A361A2690B4B1343A3610D9B1BB1A36962
:104F100043F00803A361012F04D04046BDE8F041EF
:104F200004B07047A36943F0804343F00403A361D6
:104F3000F3E700BF00383C80D0F8083813F00603D0
:104F400007D0022B07D0062B01D00F20704702207C
:104F50007047002070470220704710B591F800C0DC
:104F60004B78012B23D000F5006ED0F81C380CF0E4
:104F70000F040122A24043EA0243C0F81C3800EBB0
:104F80004C10D0F8003B13F4004F0ED1D0F8003B8A
:104F90008A68C2F30A02C97842EA8142134343F0A5
:104FA000805343F40043C0F8003B002010BDD0F80C
:104FB0001C280CF00F0E03FA0EF39BB21343C0F83B
:104FC0001C3800EB4C10D0F8003913F4004FECD132
:104FD000D0F800398A68C2F30A02C97842EA8142ED
:104FE00042EA8C5C43EA0C0343F0805343F40043F1
:104FF000C0F80039D9E7000030B40B784A78012AAC
:1050000026D000EB4313D3F8002B002A52DBD0F854
:105010003C480A7802F00F024FF0010C0CFA02F241
:1050200024EA0242C0F83C28D0F81C28097801F094
:105030000F010CFA01FC22EA0C42C0F81C28D3F83C
:10504000001B234A0A40C3F8002B002030BC7047E5
:1050500000EB4313D3F80029002A1EDBD0F83C589C
:105060000A7802F00F02012404FA02F292B225EA51
:105070000202C0F83C28D0F81C28097801F00F0182
:105080008C40A4B222EA0404C0F81C48D3F80019EA
:10509000104A0A40C3F80029D7E7D3F8002942F0A4
:1050A0000062C3F80029D3F8002942F08042C3F817
:1050B0000029D3E7D3F8002B42F00062C3F8002B9D
:1050C000D3F8002B42F08042C3F8002B9FE700BFCB
:1050D0000078F3EF007833EC70B40B784C78012C47
:1050E00027D000EB431000F530631C69E40CE404A6
:1050F0001C611C6924F0FF5424F4C0141C614C6929
:105100000CB18C684C611C6944F400241C611C695E
:105110008D68C5F3120C44EA0C041C61012A66D0A8
:10512000D0F8003B43F00443C0F8003B002070BCC3
:1051300070474C696CBB00EB4314D4F8105925F050
:10514000FF5525F4C015C4F81059D4F8105945F48A
:105150000025C4F81059D4F81059ED0CED04C4F82A
:105160001059012A34D000EB4313D3F8002942F040
:105170000442C3F800294B69002BD7D0D0F834384B
:105180000A7802F00F0101228A401343C0F8343834
:10519000CCE700EB431404F510642569ED0CED0435
:1051A0002561256925F0FF5525F4C01525618D6819
:1051B0004E69AE4200D94D61256945F4002525614F
:1051C00025694E69C6F3120C45EA0C052561C8E74E
:1051D0000A691AB100EB4311C1F8142900EB43101E
:1051E000D0F8002942F00442C0F800299EE7CA68BE
:1051F000002A95D05A6193E710B59DF8084084B90C
:1052000003334FEA930E4FF0000C08E000EB02333B
:1052100003F5805351F8044B1C600CF1010CF4456C
:10522000F4D3002010BD0000F0B583B00B784C78AB
:10523000012C33D000EB431303F5306CDCF8104045
:10524000E40CE404CCF81040DCF8104024F0FF54E7
:1052500024F4C014CCF810404C69002C40F0CA80F3
:10526000DCF810408D68C5F312052C43CCF81040D3
:10527000DCF8104044F40024CCF81040012A00F07F
:10528000D380CA78012A00F0D680D3F8002B42F0F0
:105290000442C3F8002B002003B0F0BD4C6984BB6E
:1052A00000EB4314D4F8105925F0FF5525F4C01530
:1052B000C4F81059D4F8105945F40025C4F8105911
:1052C000D4F81059ED0CED04C4F81059012A4FD050
:1052D00000EB4313D3F8004944F00444C3F80049F9
:1052E000CC78012C6DD04B69002BD4D0D0F8343859
:1052F0000A7802F00F0101228A401343C0F83438C3
:10530000C9E700EB4314D4F81059ED0CED04C4F8D0
:105310001059D4F8105925F0FF5525F4C015C4F8DC
:105320001059D4F810598E684F6907EB060C0CF130
:10533000FF3CBCFBF6FC494E06EACC4C45EA0C05AA
:10534000C4F81059D4F810594E69C6F31206354303
:10535000C4F8105904F51064CD78012DB6D1256933
:1053600025F0C0452561256945F000552561ADE76B
:105370000A691AB100EB4314C4F81429CA78012A47
:1053800008D000EB4313D3F8002942F00442C3F8DD
:10539000002980E7D0F8082812F4807F08D100EBBC
:1053A0004311D1F8002942F00052C1F80029E8E782
:1053B00000EB4311D1F8002942F08052C1F80029D6
:1053C000DFE7D0F8084814F4807F0CD1D3F8004907
:1053D00044F00054C3F8004900928B8A0A78C968E7
:1053E000FFF70AFF57E7D3F8004944F08054C3F8A9
:1053F0000049F1E78D682C44013CB4FBF5F4DCF87E
:1054000010501FFA84FE154E06EAC4442543CCF81A
:105410001050DCF810508C680EFB04F4C4F3120436
:105420002C43CCF8104029E7CA68002A3FF429AF82
:10543000CCF8142025E7D0F8082812F4807F06D194
:10544000D3F8002B42F00052C3F8002B1DE7D3F82D
:10545000002B42F08052C3F8002B16E70000F81F23
:1054600084460846D11C8908002305E00CF58052CB
:10547000126840F8042B01338B42F7D370470B7846
:105480004A78012A14D000EB4310D0F8002B002AF0
:1054900006DB2BB1D0F8003B23F08043C0F8003B83
:1054A000D0F8003B43F40013C0F8003B00207047E5
:1054B00000EB4310D0F80029002A06DB2BB1D0F80E
:1054C000003923F08043C0F80039D0F8003943F4A4
:1054D0000013C0F80039E9E70B784A78012A0ED0AA
:1054E00000EB4310D0F8003B23F40013C0F8003B5E
:1054F000CB78023BDBB2012B15D90020704700EBC3
:105500004310D0F8003923F40013C0F80039CB78E9
:10551000023BDBB2012BF0D8D0F8003943F08053C6
:10552000C0F80039E9E7D0F8003B43F08053C0F8F9
:10553000003BE2E7D0F8003823F4FE63C0F80038FF
:10554000D0F80038090101F4FE611943C0F80018D1
:105550000020704708B5D0F8043823F00203C0F8E3
:105560000438032000F018FD002008BD08B5D0F86D
:10557000043843F00203C0F80438032000F00CFDA7
:10558000002008BD4269806910407047D0F8183883
:1055900000F50060C0691840000C7047D0F818385A
:1055A00000F50060C069184080B2704700EB4111FF
:1055B000D1F8082B00F5006040691040704710B426
:1055C000D0F81048D0F8343801F00F02D340DB0196
:1055D000DBB2234300EB411000F5106080681840F7
:1055E0005DF8044B7047406900F001007047D0F847
:1055F000003923F4FF6323F00703C0F80039D0F823
:10560000043843F48073C0F8043800207047000069
:1056100010B4046C154B9C4203D9D0F8003B002B0E
:1056200016DB0024C0F8104BD0F8104B44F40024D3
:10563000C0F8104BD0F8104B44F01804C0F8104BD1
:10564000D0F8104B44F0C044C0F8104B012903D0EF
:1056500000205DF8044B7047C0F8142BD0F8003BD5
:1056600043F08023C0F8003BF2E700BF0A30544FFC
:10567000002800F0DA8170B582B00446036813F0A8
:10568000010F3BD09F4B9B6803F00C03042B2CD0E5
:105690009C4B9B6803F00C03082B21D06368B3F587
:1056A000803F4FD0B3F5A02F52D0964B1A6822F40A
:1056B00080321A601A6822F480221A606368002B14
:1056C00050D000F063FC05468E4B1B6813F4003F7E
:1056D00014D100F05BFC401B6428F5D90320ABE13A
:1056E000884B5B6813F4800FD8D0864B1B6813F48B
:1056F000003F03D06368002B00F09981236813F00A
:10570000020F54D07F4B9B6813F00C0F3ED07D4BA3
:105710009B6803F00C03082B33D0E368002B68D0A0
:10572000794B01221A6000F031FC0546754B1B686D
:1057300013F0020F54D100F029FC401B0228F5D9C8
:10574000032079E16F4A136843F480331360B5E7AF
:105750006C4B1A6842F480221A601A6842F4803254
:105760001A60ABE700F012FC0546664B1B6813F4A9
:10577000003FC3D000F00AFC401B6428F5D9032089
:105780005AE1604B5B6813F4800FC6D15D4B1B6818
:1057900013F0020F03D0E368012B40F04A81594A0D
:1057A000136823F0F803216943EAC10313602368F7
:1057B00013F0080F42D063696BB3534B0122C3F857
:1057C000802E00F0E3FB05464E4B5B6F13F0020F9B
:1057D00034D100F0DBFB401B0228F5D903202BE17C
:1057E000484A136823F0F803216943EAC1031360B0
:1057F000DDE7454B00221A6000F0C8FB0546414B2F
:105800001B6813F0020FD2D000F0C0FB401B02282F
:10581000F5D9032010E13C4B0022C3F8802E00F0A4
:10582000B5FB0546374B5B6F13F0020F06D000F057
:10583000ADFB401B0228F5D90320FDE0236813F0DF
:10584000040F77D02F4B1B6C13F0805F33D10023F4
:1058500001932C4B1A6C42F080521A641B6C03F0BB
:1058600080530193019B0125284B1B6813F4807F13
:1058700023D0A368012B34D0052B38D0214B1A6FCD
:1058800022F001021A671A6F22F004021A67A36855
:10589000002B3DD000F07AFB06461A4B1B6F13F02D
:1058A000020F46D100F072FB801B41F28833984210
:1058B000F3D90320C0E00025D6E7144A136843F467
:1058C0008073136000F062FB0646104B1B6813F4F4
:1058D000807FCED100F05AFB801B0228F5D903202F
:1058E000AAE0084A136F43F001031367CFE7054BA3
:1058F0001A6F42F004021A671A6F42F001021A6727
:10590000C5E700BF00380240000047420070004079
:1059100000F03CFB06464F4B1B6F13F0020F08D004
:1059200000F034FB801B41F288339842F3D9032006
:1059300082E0E5B9A369002B7DD0464A926802F067
:105940000C02082A51D0022B17D0434B00221A66B2
:1059500000F01CFB04463F4B1B6813F0007F42D055
:1059600000F014FB001B0228F5D9032064E0394A3B
:10597000136C23F080531364DCE7374B00221A6664
:1059800000F004FB0546334B1B6813F0007F06D084
:1059900000F0FCFA401B0228F5D903204CE0E36933
:1059A000226A1343626A43EA8213A26A5208013AE6
:1059B00043EA0243E26A43EA0263264A5360264B03
:1059C00001221A6600F0E2FA0446224B1B6813F02B
:1059D000007F06D100F0DAFA001B0228F5D9032077
:1059E0002AE0002028E0002026E0012B26D0194BD9
:1059F0005B6803F48001E269914221D103F03F0228
:105A0000216A8A421ED1616A47F6C0721A408A42F0
:105A10001AD103F44032A16A8A4217D103F07063AD
:105A2000E26A934214D1002006E001207047012071
:105A300002E0012000E0002002B070BD0120FBE781
:105A40000120F9E70120F7E70120F5E70120F3E75E
:105A50000120F1E7003802400000474208B5254B1D
:105A60009B6803F00C03042B3FD0082B3FD1214B44
:105A70005A6802F03F025B6813F4800F12D01D4B8E
:105A80005968C1F388111C480023A1FB0001FAF7F3
:105A9000A7FB184B5B68C3F3014301335B00B0FB0A
:105AA000F3F025E0134B5968C1F3881C4FEA4C1101
:105AB000B1EB0C006EEB0E0E4FEA8E1343EA9063CF
:105AC0008101091A63EB0E03DB0043EA5173C9003D
:105AD00011EB0C0C43F10003990200234FEA8C20D8
